{
	"data": {
		"bytecode": {
			"linkReferences": {},
			"object": "6080604052348015600e575f80fd5b506106268061001c5f395ff3fe608060405234801561000f575f80fd5b506004361061004a575f3560e01c8063165c4a161461004e5780633ef5e4451461007e578063771602f7146100ae578063f88e9fbf146100de575b5f80fd5b6100686004803603810190610063919061031e565b61010e565b604051610075919061036b565b60405180910390f35b6100986004803603810190610093919061031e565b610163565b6040516100a5919061036b565b60405180910390f35b6100c860048036038101906100c3919061031e565b6101fb565b6040516100d5919061036b565b60405180910390f35b6100f860048036038101906100f3919061031e565b610250565b604051610105919061036b565b60405180910390f35b5f80828461011c91906103b1565b90507f335998e93ba3244a0211e8567928b9e75100151dc4bb0c7701d715ea462b279a848483604051610151939291906103f2565b60405180910390a18091505092915050565b5f828211156101a7576040517f08c379a000000000000000000000000000000000000000000000000000000000815260040161019e906104a7565b60405180910390fd5b5f82846101b491906104c5565b90507fcc1e4c4352d62a39790806ed8a1280fcd6798f7aeda79d070b0ddcea074ac1688484836040516101e9939291906103f2565b60405180910390a18091505092915050565b5f80828461020991906104f8565b90507f099a8fd2a0841afbe8000d711d763bf2c54b2c63bed7b7f92a244ef4f515453684848360405161023e939291906103f2565b60405180910390a18091505092915050565b5f808211610293576040517f08c379a000000000000000000000000000000000000000000000000000000000815260040161028a90610575565b60405180910390fd5b5f82846102a091906105c0565b90507fd8ef84f712e41d28f98fe74cd153013023d849514d0a40ee61834f3c385055ce8484836040516102d5939291906103f2565b60405180910390a18091505092915050565b5f80fd5b5f819050919050565b6102fd816102eb565b8114610307575f80fd5b50565b5f81359050610318816102f4565b92915050565b5f8060408385031215610334576103336102e7565b5b5f6103418582860161030a565b92505060206103528582860161030a565b9150509250929050565b610365816102eb565b82525050565b5f60208201905061037e5f83018461035c565b92915050565b7f4e487b71000000000000000000000000000000000000000000000000000000005f52601160045260245ffd5b5f6103bb826102eb565b91506103c6836102eb565b92508282026103d4816102eb565b915082820484148315176103eb576103ea610384565b5b5092915050565b5f6060820190506104055f83018661035c565b610412602083018561035c565b61041f604083018461035c565b949350505050565b5f82825260208201905092915050565b7f5375627472616374696f6e20726573756c7420776f756c64206265206e6567615f8201527f7469766500000000000000000000000000000000000000000000000000000000602082015250565b5f610491602483610427565b915061049c82610437565b604082019050919050565b5f6020820190508181035f8301526104be81610485565b9050919050565b5f6104cf826102eb565b91506104da836102eb565b92508282039050818111156104f2576104f1610384565b5b92915050565b5f610502826102eb565b915061050d836102eb565b925082820190508082111561052557610524610384565b5b92915050565b7f4469766973696f6e206279207a65726f206973206e6f7420616c6c6f776564005f82015250565b5f61055f601f83610427565b915061056a8261052b565b602082019050919050565b5f6020820190508181035f83015261058c81610553565b9050919050565b7f4e487b71000000000000000000000000000000000000000000000000000000005f52601260045260245ffd5b5f6105ca826102eb565b91506105d5836102eb565b9250826105e5576105e4610593565b5b82820490509291505056fea2646970667358221220a998c8909eb95ebb75e92e366ffdea13ec418b8d730913027aa5840482a1302064736f6c634300081a0033",
			"opcodes": "PUSH1 0x80 PUSH1 0x40 MSTORE CALLVALUE DUP1 ISZERO PUSH1 0xE JUMPI PUSH0 DUP1 REVERT JUMPDEST POP PUSH2 0x626 DUP1 PUSH2 0x1C PUSH0 CODECOPY PUSH0 RETURN INVALID PUSH1 0x80 PUSH1 0x40 MSTORE CALLVALUE DUP1 ISZERO PUSH2 0xF JUMPI PUSH0 DUP1 REVERT JUMPDEST POP PUSH1 0x4 CALLDATASIZE LT PUSH2 0x4A JUMPI PUSH0 CALLDATALOAD PUSH1 0xE0 SHR DUP1 PUSH4 0x165C4A16 EQ PUSH2 0x4E JUMPI DUP1 PUSH4 0x3EF5E445 EQ PUSH2 0x7E JUMPI DUP1 PUSH4 0x771602F7 EQ PUSH2 0xAE JUMPI DUP1 PUSH4 0xF88E9FBF EQ PUSH2 0xDE JUMPI JUMPDEST PUSH0 DUP1 REVERT JUMPDEST PUSH2 0x68 PUSH1 0x4 DUP1 CALLDATASIZE SUB DUP2 ADD SWAP1 PUSH2 0x63 SWAP2 SWAP1 PUSH2 0x31E JUMP JUMPDEST PUSH2 0x10E JUMP JUMPDEST PUSH1 0x40 MLOAD PUSH2 0x75 SWAP2 SWAP1 PUSH2 0x36B JUMP JUMPDEST PUSH1 0x40 MLOAD DUP1 SWAP2 SUB SWAP1 RETURN JUMPDEST PUSH2 0x98 PUSH1 0x4 DUP1 CALLDATASIZE SUB DUP2 ADD SWAP1 PUSH2 0x93 SWAP2 SWAP1 PUSH2 0x31E JUMP JUMPDEST PUSH2 0x163 JUMP JUMPDEST PUSH1 0x40 MLOAD PUSH2 0xA5 SWAP2 SWAP1 PUSH2 0x36B JUMP JUMPDEST PUSH1 0x40 MLOAD DUP1 SWAP2 SUB SWAP1 RETURN JUMPDEST PUSH2 0xC8 PUSH1 0x4 DUP1 CALLDATASIZE SUB DUP2 ADD SWAP1 PUSH2 0xC3 SWAP2 SWAP1 PUSH2 0x31E JUMP JUMPDEST PUSH2 0x1FB JUMP JUMPDEST PUSH1 0x40 MLOAD PUSH2 0xD5 SWAP2 SWAP1 PUSH2 0x36B JUMP JUMPDEST PUSH1 0x40 MLOAD DUP1 SWAP2 SUB SWAP1 RETURN JUMPDEST PUSH2 0xF8 PUSH1 0x4 DUP1 CALLDATASIZE SUB DUP2 ADD SWAP1 PUSH2 0xF3 SWAP2 SWAP1 PUSH2 0x31E JUMP JUMPDEST PUSH2 0x250 JUMP JUMPDEST PUSH1 0x40 MLOAD PUSH2 0x105 SWAP2 SWAP1 PUSH2 0x36B JUMP JUMPDEST PUSH1 0x40 MLOAD DUP1 SWAP2 SUB SWAP1 RETURN JUMPDEST PUSH0 DUP1 DUP3 DUP5 PUSH2 0x11C SWAP2 SWAP1 PUSH2 0x3B1 JUMP JUMPDEST SWAP1 POP PUSH32 0x335998E93BA3244A0211E8567928B9E75100151DC4BB0C7701D715EA462B279A DUP5 DUP5 DUP4 PUSH1 0x40 MLOAD PUSH2 0x151 SWAP4 SWAP3 SWAP2 SWAP1 PUSH2 0x3F2 JUMP JUMPDEST PUSH1 0x40 MLOAD DUP1 SWAP2 SUB SWAP1 LOG1 DUP1 SWAP2 POP POP SWAP3 SWAP2 POP POP JUMP JUMPDEST PUSH0 DUP3 DUP3 GT ISZERO PUSH2 0x1A7 JUMPI PUSH1 0x40 MLOAD PUSH32 0x8C379A000000000000000000000000000000000000000000000000000000000 DUP2 MSTORE PUSH1 0x4 ADD PUSH2 0x19E SWAP1 PUSH2 0x4A7 JUMP JUMPDEST PUSH1 0x40 MLOAD DUP1 SWAP2 SUB SWAP1 REVERT JUMPDEST PUSH0 DUP3 DUP5 PUSH2 0x1B4 SWAP2 SWAP1 PUSH2 0x4C5 JUMP JUMPDEST SWAP1 POP PUSH32 0xCC1E4C4352D62A39790806ED8A1280FCD6798F7AEDA79D070B0DDCEA074AC168 DUP5 DUP5 DUP4 PUSH1 0x40 MLOAD PUSH2 0x1E9 SWAP4 SWAP3 SWAP2 SWAP1 PUSH2 0x3F2 JUMP JUMPDEST PUSH1 0x40 MLOAD DUP1 SWAP2 SUB SWAP1 LOG1 DUP1 SWAP2 POP POP SWAP3 SWAP2 POP POP JUMP JUMPDEST PUSH0 DUP1 DUP3 DUP5 PUSH2 0x209 SWAP2 SWAP1 PUSH2 0x4F8 JUMP JUMPDEST SWAP1 POP PUSH32 0x99A8FD2A0841AFBE8000D711D763BF2C54B2C63BED7B7F92A244EF4F5154536 DUP5 DUP5 DUP4 PUSH1 0x40 MLOAD PUSH2 0x23E SWAP4 SWAP3 SWAP2 SWAP1 PUSH2 0x3F2 JUMP JUMPDEST PUSH1 0x40 MLOAD DUP1 SWAP2 SUB SWAP1 LOG1 DUP1 SWAP2 POP POP SWAP3 SWAP2 POP POP JUMP JUMPDEST PUSH0 DUP1 DUP3 GT PUSH2 0x293 JUMPI PUSH1 0x40 MLOAD PUSH32 0x8C379A000000000000000000000000000000000000000000000000000000000 DUP2 MSTORE PUSH1 0x4 ADD PUSH2 0x28A SWAP1 PUSH2 0x575 JUMP JUMPDEST PUSH1 0x40 MLOAD DUP1 SWAP2 SUB SWAP1 REVERT JUMPDEST PUSH0 DUP3 DUP5 PUSH2 0x2A0 SWAP2 SWAP1 PUSH2 0x5C0 JUMP JUMPDEST SWAP1 POP PUSH32 0xD8EF84F712E41D28F98FE74CD153013023D849514D0A40EE61834F3C385055CE DUP5 DUP5 DUP4 PUSH1 0x40 MLOAD PUSH2 0x2D5 SWAP4 SWAP3 SWAP2 SWAP1 PUSH2 0x3F2 JUMP JUMPDEST PUSH1 0x40 MLOAD DUP1 SWAP2 SUB SWAP1 LOG1 DUP1 SWAP2 POP POP SWAP3 SWAP2 POP POP JUMP JUMPDEST PUSH0 DUP1 REVERT JUMPDEST PUSH0 DUP2 SWAP1 POP SWAP2 SWAP1 POP JUMP JUMPDEST PUSH2 0x2FD DUP2 PUSH2 0x2EB JUMP JUMPDEST DUP2 EQ PUSH2 0x307 JUMPI PUSH0 DUP1 REVERT JUMPDEST POP JUMP JUMPDEST PUSH0 DUP2 CALLDATALOAD SWAP1 POP PUSH2 0x318 DUP2 PUSH2 0x2F4 JUMP JUMPDEST SWAP3 SWAP2 POP POP JUMP JUMPDEST PUSH0 DUP1 PUSH1 0x40 DUP4 DUP6 SUB SLT ISZERO PUSH2 0x334 JUMPI PUSH2 0x333 PUSH2 0x2E7 JUMP JUMPDEST JUMPDEST PUSH0 PUSH2 0x341 DUP6 DUP3 DUP7 ADD PUSH2 0x30A JUMP JUMPDEST SWAP3 POP POP PUSH1 0x20 PUSH2 0x352 DUP6 DUP3 DUP7 ADD PUSH2 0x30A JUMP JUMPDEST SWAP2 POP POP SWAP3 POP SWAP3 SWAP1 POP JUMP JUMPDEST PUSH2 0x365 DUP2 PUSH2 0x2EB JUMP JUMPDEST DUP3 MSTORE POP POP JUMP JUMPDEST PUSH0 PUSH1 0x20 DUP3 ADD SWAP1 POP PUSH2 0x37E PUSH0 DUP4 ADD DUP5 PUSH2 0x35C JUMP JUMPDEST SWAP3 SWAP2 POP POP JUMP JUMPDEST PUSH32 0x4E487B7100000000000000000000000000000000000000000000000000000000 PUSH0 MSTORE PUSH1 0x11 PUSH1 0x4 MSTORE PUSH1 0x24 PUSH0 REVERT JUMPDEST PUSH0 PUSH2 0x3BB DUP3 PUSH2 0x2EB JUMP JUMPDEST SWAP2 POP PUSH2 0x3C6 DUP4 PUSH2 0x2EB JUMP JUMPDEST SWAP3 POP DUP3 DUP3 MUL PUSH2 0x3D4 DUP2 PUSH2 0x2EB JUMP JUMPDEST SWAP2 POP DUP3 DUP3 DIV DUP5 EQ DUP4 ISZERO OR PUSH2 0x3EB JUMPI PUSH2 0x3EA PUSH2 0x384 JUMP JUMPDEST JUMPDEST POP SWAP3 SWAP2 POP POP JUMP JUMPDEST PUSH0 PUSH1 0x60 DUP3 ADD SWAP1 POP PUSH2 0x405 PUSH0 DUP4 ADD DUP7 PUSH2 0x35C JUMP JUMPDEST PUSH2 0x412 PUSH1 0x20 DUP4 ADD DUP6 PUSH2 0x35C JUMP JUMPDEST PUSH2 0x41F PUSH1 0x40 DUP4 ADD DUP5 PUSH2 0x35C JUMP JUMPDEST SWAP5 SWAP4 POP POP POP POP JUMP JUMPDEST PUSH0 DUP3 DUP3 MSTORE PUSH1 0x20 DUP3 ADD SWAP1 POP SWAP3 SWAP2 POP POP JUMP JUMPDEST PUSH32 0x5375627472616374696F6E20726573756C7420776F756C64206265206E656761 PUSH0 DUP3 ADD MSTORE PUSH32 0x7469766500000000000000000000000000000000000000000000000000000000 PUSH1 0x20 DUP3 ADD MSTORE POP JUMP JUMPDEST PUSH0 PUSH2 0x491 PUSH1 0x24 DUP4 PUSH2 0x427 JUMP JUMPDEST SWAP2 POP PUSH2 0x49C DUP3 PUSH2 0x437 JUMP JUMPDEST PUSH1 0x40 DUP3 ADD SWAP1 POP SWAP2 SWAP1 POP JUMP JUMPDEST PUSH0 PUSH1 0x20 DUP3 ADD SWAP1 POP DUP2 DUP2 SUB PUSH0 DUP4 ADD MSTORE PUSH2 0x4BE DUP2 PUSH2 0x485 JUMP JUMPDEST SWAP1 POP SWAP2 SWAP1 POP JUMP JUMPDEST PUSH0 PUSH2 0x4CF DUP3 PUSH2 0x2EB JUMP JUMPDEST SWAP2 POP PUSH2 0x4DA DUP4 PUSH2 0x2EB JUMP JUMPDEST SWAP3 POP DUP3 DUP3 SUB SWAP1 POP DUP2 DUP2 GT ISZERO PUSH2 0x4F2 JUMPI PUSH2 0x4F1 PUSH2 0x384 JUMP JUMPDEST JUMPDEST SWAP3 SWAP2 POP POP JUMP JUMPDEST PUSH0 PUSH2 0x502 DUP3 PUSH2 0x2EB JUMP JUMPDEST SWAP2 POP PUSH2 0x50D DUP4 PUSH2 0x2EB JUMP JUMPDEST SWAP3 POP DUP3 DUP3 ADD SWAP1 POP DUP1 DUP3 GT ISZERO PUSH2 0x525 JUMPI PUSH2 0x524 PUSH2 0x384 JUMP JUMPDEST JUMPDEST SWAP3 SWAP2 POP POP JUMP JUMPDEST PUSH32 0x4469766973696F6E206279207A65726F206973206E6F7420616C6C6F77656400 PUSH0 DUP3 ADD MSTORE POP JUMP JUMPDEST PUSH0 PUSH2 0x55F PUSH1 0x1F DUP4 PUSH2 0x427 JUMP JUMPDEST SWAP2 POP PUSH2 0x56A DUP3 PUSH2 0x52B JUMP JUMPDEST PUSH1 0x20 DUP3 ADD SWAP1 POP SWAP2 SWAP1 POP JUMP JUMPDEST PUSH0 PUSH1 0x20 DUP3 ADD SWAP1 POP DUP2 DUP2 SUB PUSH0 DUP4 ADD MSTORE PUSH2 0x58C DUP2 PUSH2 0x553 JUMP JUMPDEST SWAP1 POP SWAP2 SWAP1 POP JUMP JUMPDEST PUSH32 0x4E487B7100000000000000000000000000000000000000000000000000000000 PUSH0 MSTORE PUSH1 0x12 PUSH1 0x4 MSTORE PUSH1 0x24 PUSH0 REVERT JUMPDEST PUSH0 PUSH2 0x5CA DUP3 PUSH2 0x2EB JUMP JUMPDEST SWAP2 POP PUSH2 0x5D5 DUP4 PUSH2 0x2EB JUMP JUMPDEST SWAP3 POP DUP3 PUSH2 0x5E5 JUMPI PUSH2 0x5E4 PUSH2 0x593 JUMP JUMPDEST JUMPDEST DUP3 DUP3 DIV SWAP1 POP SWAP3 SWAP2 POP POP JUMP INVALID LOG2 PUSH5 0x6970667358 0x22 SLT KECCAK256 0xA9 SWAP9 0xC8 SWAP1 SWAP15 0xB9 MCOPY 0xBB PUSH22 0xE92E366FFDEA13EC418B8D730913027AA5840482A130 KECCAK256 PUSH5 0x736F6C6343 STOP ADDMOD BYTE STOP CALLER "
		},
		"gasEstimates": {
			"creation": {
				"codeDepositCost": "314800",
				"executionCost": "353",
				"totalCost": "315153"
			},
			"external": {
				"add(uint256,uint256)": "infinite",
				"divide(uint256,uint256)": "infinite",
				"multiply(uint256,uint256)": "infinite",
				"subtract(uint256,uint256)": "infinite"
			}
		},
		"methodIdentifiers": {
			"add(uint256,uint256)": "771602f7",
			"divide(uint256,uint256)": "f88e9fbf",
			"multiply(uint256,uint256)": "165c4a16",
			"subtract(uint256,uint256)": "3ef5e445"
		}
	},
	"abi": [
		{
			"anonymous": false,
			"inputs": [
				{
					"indexed": false,
					"internalType": "uint256",
					"name": "a",
					"type": "uint256"
				},
				{
					"indexed": false,
					"internalType": "uint256",
					"name": "b",
					"type": "uint256"
				},
				{
					"indexed": false,
					"internalType": "uint256",
					"name": "result",
					"type": "uint256"
				}
			],
			"name": "Addition",
			"type": "event"
		},
		{
			"anonymous": false,
			"inputs": [
				{
					"indexed": false,
					"internalType": "uint256",
					"name": "a",
					"type": "uint256"
				},
				{
					"indexed": false,
					"internalType": "uint256",
					"name": "b",
					"type": "uint256"
				},
				{
					"indexed": false,
					"internalType": "uint256",
					"name": "result",
					"type": "uint256"
				}
			],
			"name": "Division",
			"type": "event"
		},
		{
			"anonymous": false,
			"inputs": [
				{
					"indexed": false,
					"internalType": "uint256",
					"name": "a",
					"type": "uint256"
				},
				{
					"indexed": false,
					"internalType": "uint256",
					"name": "b",
					"type": "uint256"
				},
				{
					"indexed": false,
					"internalType": "uint256",
					"name": "result",
					"type": "uint256"
				}
			],
			"name": "Multiplication",
			"type": "event"
		},
		{
			"anonymous": false,
			"inputs": [
				{
					"indexed": false,
					"internalType": "uint256",
					"name": "a",
					"type": "uint256"
				},
				{
					"indexed": false,
					"internalType": "uint256",
					"name": "b",
					"type": "uint256"
				},
				{
					"indexed": false,
					"internalType": "uint256",
					"name": "result",
					"type": "uint256"
				}
			],
			"name": "Subtraction",
			"type": "event"
		},
		{
			"inputs": [
				{
					"internalType": "uint256",
					"name": "a",
					"type": "uint256"
				},
				{
					"internalType": "uint256",
					"name": "b",
					"type": "uint256"
				}
			],
			"name": "add",
			"outputs": [
				{
					"internalType": "uint256",
					"name": "",
					"type": "uint256"
				}
			],
			"stateMutability": "nonpayable",
			"type": "function"
		},
		{
			"inputs": [
				{
					"internalType": "uint256",
					"name": "a",
					"type": "uint256"
				},
				{
					"internalType": "uint256",
					"name": "b",
					"type": "uint256"
				}
			],
			"name": "divide",
			"outputs": [
				{
					"internalType": "uint256",
					"name": "",
					"type": "uint256"
				}
			],
			"stateMutability": "nonpayable",
			"type": "function"
		},
		{
			"inputs": [
				{
					"internalType": "uint256",
					"name": "a",
					"type": "uint256"
				},
				{
					"internalType": "uint256",
					"name": "b",
					"type": "uint256"
				}
			],
			"name": "multiply",
			"outputs": [
				{
					"internalType": "uint256",
					"name": "",
					"type": "uint256"
				}
			],
			"stateMutability": "nonpayable",
			"type": "function"
		},
		{
			"inputs": [
				{
					"internalType": "uint256",
					"name": "a",
					"type": "uint256"
				},
				{
					"internalType": "uint256",
					"name": "b",
					"type": "uint256"
				}
			],
			"name": "subtract",
			"outputs": [
				{
					"internalType": "uint256",
					"name": "",
					"type": "uint256"
				}
			],
			"stateMutability": "nonpayable",
			"type": "function"
		}
	]
}